:10012200D3EF9400EE940040217D147C007B5A7A38
:1001320000EB1B70011AEB4A70F7ED1D70011CED0C
:0A0142004C70EAEF1F70D91E80D642
:01014C002290
:10016700759A50438E0475D7E075D6FE438E107589
:03017700AF0122B3
:0801B1008F993099FDC29922DB
:0B01A6008F9BE59A30E1FB539AFD228D
:10017A00120003FF600C1201B1740129F9E43AFA82
:03018A0080EE22E2
:10014D00E4900000F0A3F0120003FF600C1201A672
:09015D00740129F9E43AFA80EE7C
:010166002276
:1000B40075B00FE5B0540FF9640F602B7F0A7E0012
:1000C400120122E5B0540F640F601EE5B0540FF91D
:1000D40044F0F5B0E5B054F0FFE5B054F064F070CE
:0900E400F8AE01E92FFF227FFFB5
:0100ED0022F0
:100046001200B4EF12001C008A7700967B00A27D96
:1000560000AE7E0087B70093BB009FBD00ABBE001D
:1000660084D70090DB009CDD00A8DE0081E7008DD0
:10007600EB0099ED00A5EE000000B17F44227F431E
:10008600227F42227F41227F45227F39227F3622EC
:100096007F33227F30227F38227F35227F32227FB4
:0E00A60046227F37227F34227F31227FFF22C5
:1000EE00E4900002F0A3F0F91201677F64FE1201A2
:1000FE0022900003E004F07006900002E004F07F0E
:10010E000A7E00120122120046A907E9F460E212EB
:04011E0001A680DDD9
:0300430002018D2A
:0D018D00C0E0E59A30E003539AFED0E03266
:0300000002019A60
:0C019A00787FE4F6D8FD7581070200EEC6
:10000300BB010689828A83E0225002E722BBFE02FB
:09001300E32289828A83E493222E
:10001C00D083D082F8E4937012740193700DA3A373
:10002C0093F8740193F5828883E473740293686087
:06003C00EFA3A3A380DF87
:00000001FF
