:020000040800F2
:100000003818002085020008890200088B020008C9
:100010008D0200088F020008910200080000000015
:100020000000000000000000000000009302000833
:1000300095020008000000009702000899020008DD
:100040009B0200089B0200089B020008BB230008DB
:100050009B0200089B0200089B0200089B0200080C
:100060009B0200089B0200089B0200089B020008FC
:100070009B0200089B0200089B0200089B020008EC
:100080009B0200089B0200089B0200089B020008DC
:100090009B0200089B0200089B02000879290008C7
:1000A0009B0200089B0200089B0200089B020008BC
:1000B0009B0200089B020008C32800089B0200085E
:1000C0009B0200089B0200089B0200089B0200089C
:1000D0009B020008F70E0008BF260008211900083F
:1000E0009B0200089B0200089B02000800F002F837
:1000F00000F0B2F80AA090E8000C82448344AAF110
:100100000107DA4501D100F0A7F8AFF2090EBAE80D
:100110000F0013F0010F18BFFB1A43F0010318473B
:1001200084AD0000A4AD00000A444FF0000C10F8AC
:10013000013B13F0070408BF10F8014B1D1108BF65
:1001400010F8015B641E05D010F8016B641E01F805
:10015000016BF9D113F0080F1EBF10F8014BAD1C55
:100160000C1B09D16D1E58BF01F801CBFAD505E073
:1001700014F8016B01F8016B6D1EF9D59142D6D3CD
:10018000704700000023002400250026103A28BFF5
:1001900078C1FBD8520728BF30C148BF0B607047F9
:1001A0006E2906F0CE82702906F02884662909F0AF
:1001B000AE80652909F0AB80672909F0A880612924
:1001C000AFF3008003681B0A28BF41F08001692952
:1001D00006F01E80642906F01B80752906F0188041
:1001E0006F2906F0B383782906F0F483E92906F035
:1001F0004B83E42906F04883F52906F04583EF296F
:1002000006F0B083F82906F0F3830368DB0928BF02
:1002100041F08001632906F08386732906F0888601
:10022000E32906F09386F32906F0988600207047AC
:100230001FB508F0B0FF06F013FF040000200021F6
:1002400007F08EFF401C60600020002107F072FF65
:10025000E0601FBD10B510BD06F0D4FE1146FFF7DB
:10026000E7FF00F02BF806F0B5FF03B4FFF7F2FF4D
:1002700003BC00F01DFE000030BF72B662B680F312
:100280000888704708480047FEE7FEE7FEE7FEE7FC
:10029000FEE7FEE7FEE7FEE7FEE7FEE70348044968
:1002A000044A054B70470000ED000008381200209A
:1002B00038180020381400203814002088B0002797
:1002C00000240025092000F091FD482000F030FCBA
:1002D0004FF4E131482000F048FE022000F073FDA9
:1002E000012000F070FD00F0CDFE00F029FF01F0CC
:1002F000E6FB4FF4E131482000F037FE4FF4165191
:10030000242001F091FA00F0E3FF05F08EFB05F0E8
:10031000A0FB4FF4E131242002F049FA01F098FFEC
:100320000020FF4908604FF01002FE49FE4802F02D
:100330001DF9FC484078312809D00B22F949FA48C8
:1003400002F025F91022F749F74802F00FF9F548B5
:1003500040788DF80C00F34880788DF80D00F14856
:10036000C0788DF80E00EF4800798DF80F00ED4849
:1003700040798DF81000EB4880798DF81100E9483C
:10038000C0798DF81200E748007A8DF81300E5482F
:10039000407A8DF81400E348807A8DF81500E14822
:1003A000C07A8DF8160000221146104601F074FC48
:1003B00001220021102001F06FFC022200212020E8
:1003C00001F06AFC03220021302001F065FC0422C8
:1003D0000021402001F060FC05220021502001F0A6
:1003E0005BFC06220021602001F056FC0722002160
:1003F000702001F051FC08220221002001F04CFC89
:1004000009220221102001F047FC0A2202212020AB
:1004100001F042FC0B220221302001F03DFC0C22B5
:100420000221402001F038FC0D220221502001F071
:1004300033FC0E220221602001F02EFC0F2202214B
:10044000702001F029FC42F2107702E0C82000F091
:1004500085FB3800A7F101018FB2F7D101F013FB42
:1004600003AA0021084601F07EFB42F2107700202B
:10047000AE490860B1E1C82000F070FBAC480078DC
:10048000012809D10020AA490870AA4806783246F6
:100490000321322001F097FB412E7ED19BE1681CA5
:1004A00085B2A3480078012849D10020A0490870EE
:1004B000A048067832460321322001F084FB442E06
:1004C00032D142F206772220964908709DF80C003E
:1004D00048709DF80D0088709DF80E00C8709DF85A
:1004E0000F0008719DF8100048719DF81100887187
:1004F0009DF81200C8719DF8130008729DF8140051
:1005000048729DF8150088729DF81600C872222066
:1005100008730D2048730A2088730020C8731022C6
:10052000814802F034F857E1422E04D1601C84B2B5
:100530000A2C00DD0024392E01DC03A80655D4B9AD
:100540004FF47A7095FBF0F100FB1150B0F5FA7F93
:1005500006DA9DF80C200021084601F034FB0AE081
:1005600020220021084601F02EFB9DF816200021D4
:100570003C2001F028FB012C1BD14FF47A7095FB35
:10058000F0F100FB1150B0F5FA7F07DA9DF80D206D
:100590000021062001F017FB0BE01EE120220021C4
:1005A000062001F010FB9DF80C200021084601F008
:1005B0000AFB022C1AD14FF47A7095FBF0F100FB84
:1005C0001150B0F5FA7F06DA9DF80E2000210C20BC
:1005D00001F0F9FA0AE0202200210C2001F0F3FAE0
:1005E0009DF80D200021062001F0EDFA032C1AD110
:1005F0004FF47A7095FBF0F100FB1150B0F5FA7FE3
:1006000006DA9DF80F200021122001F0DCFA0AE042
:1006100020220021122001F0D6FA9DF80E200021A0
:100620000C2001F0D0FA042C1AD14FF47A7095FB0B
:10063000F0F100FB1150B0F5FA7F06DA9DF81020BA
:100640000021182001F0BFFA0AE020220021182022
:1006500001F0B9FA9DF80F200021122001F0B3FA41
:10066000052C1AD14FF47A7095FBF0F100FB115074
:10067000B0F5FA7F06DA9DF8112000211E2001F066
:10068000A2FA0AE0202200211E2001F09CFA9DF827
:1006900010200021182001F096FA062C1AD14FF4F0
:1006A0007A7095FBF0F100FB1150B0F5FA7F06DA95
:1006B0009DF812200021242001F085FA0AE0202272
:1006C0000021242001F07FFA9DF8112000211E2036
:1006D00001F079FA072C1AD14FF47A7095FBF0F1FA
:1006E00000FB1150B0F5FA7F06DA9DF813200021C7
:1006F0002A2001F068FA0AE0202200212A2001F0D5
:1007000062FA9DF812200021242001F05CFA082CE6
:1007100027D14FF47A7095FBF0F100FB11500BE0FC
:10072000808121420800002000C000089081214201
:100730005600002058000020B0F5FA7F06DA9DF838
:1007400014200021302001F03EFA0AE0202200218E
:10075000302001F038FA9DF8132000212A2001F002
:1007600032FA092C1AD14FF47A7095FBF0F100FBA4
:100770001150B0F5FA7F06DA9DF8152000213620D9
:1007800001F021FA0AE020220021362001F01BFAB4
:100790009DF814200021302001F015FA0A2C1AD1FE
:1007A0004FF47A7095FBF0F100FB1150B0F5FA7F31
:1007B00006DA9DF8162000213C2001F004FA0AE038
:1007C000202200213C2001F0FEF99DF81520002197
:1007D000362001F0F8F962E600BF3800A7F1010108
:1007E0008FB27FF448AE01F04EF901F0B9F81E2047
:1007F000AA49086050E1AA48007808B905F0B4FB9E
:100800000120A84908700020A749087000BFA5482A
:1008100000780028FBD1A548807840457ED0A448C8
:1008200000686FEA0000A349C1F8B4019B48006862
:1008300000F101009949086008460068322801DD8E
:1008400032200860994890F80280828804230021B1
:10085000084601F0E7F995488279022300211E201D
:1008600001F0E0F99148C27902230021302001F023
:10087000D9F98E48007A07282FD2DFE800F0040A61
:1008800010161C2228008CA20121422001F06BF9D5
:1008900023E08CA20121422001F065F91DE08CA229
:1008A0000121422001F05FF917E08CA201214220D2
:1008B00001F059F911E08CA20121422001F053F915
:1008C0000BE08CA20121422001F04DF905E08CA241
:1008D0000121422001F047F900BF00BF73480278B0
:1008E00002230121002001F09DF970484278022383
:1008F0000121122001F096F96C488278022301212F
:10090000242001F08FF92D220021182001F05BF93D
:100910002D2200212A2001F056F900E009E03A22B8
:1009200001210C2001F04FF93A2201211E2001F093
:100930004AF976480078012816D1002073490870DA
:100940007348067832460321322001F03CF9432EE9
:100950000AD11E205149086000206E4908606E4986
:10096000C1F890016D4908706D48008810F4004F7F
:100970007ED000206A4908806A48407844285FD1C8
:1009800068484079303867490979303901EB81018D
:1009900000EB4100C0B28DF818006248C0793038D1
:1009A00060498979303901EB810100EB4100C0B227
:1009B0008DF819005B48407A30385A49097A303945
:1009C00001EB810100EB4100C0B28DF81A005548DF
:1009D000C07A30385349897A303901EB810100EB14
:1009E0004100C0B28DF81B004E48407B30384D4965
:1009F000097B303901EB810100EB4100C0B28DF879
:100A00001C004848C07B30384649897B303901EBAF
:100A1000810100EB4100C0B28DF81D009DF81D3032
:100A20009DF81C20CDE900239DF81B309DF81A206D
:100A30009DF819109DF818C00CF5FA6001F08BFBB9
:100A4000384840784E2827D1364880783649487053
:100A50003448C078887033480079C870314840798C
:100A600008713048807948712E48C079887100E05B
:100A700012E02C48007AC8712A48407A0872294846
:100A8000807A48722748C07A88722648007BC872EC
:100A90001022264801F07BFDADE600000400002096
:100AA000020000202900002028000020E60200208B
:100AB000B40122420000224253756E646179202005
:100AC000200000004D6F6E6461792020200000003E
:100AD0005475657364617920200000005765646E69
:100AE000657364617900000054687572736461799C
:100AF0002000000046726964617920202000000017
:100B00005361747572646179200000005600002002
:100B1000580000208081214200802142C402002030
:100B20003C000020C80200200800002000C000088F
:100B30004FF0E021096921F004014FF0E02211613A
:100B4000C21700EB5272D2101F4B1A701946097867
:100B50004FF47A7251431D4A1180704701461A4A78
:100B600012784A434FF0E0235A6100229A61012231
:100B70001A6100BF4FF0E022106910F0010F02D09F
:100B800010F4803FF6D000224FF0E0231A619A6102
:100B9000704701460D4A12884A434FF0E0235A61DC
:100BA00000229A6101221A6100BF4FF0E022106911
:100BB00010F0010F02D010F4803FF6D000224FF069
:100BC000E0231A619A617047360000203800002047
:100BD000A74A0A400243A74B1A6070470146072301
:100BE00023EA01021202A44B18684FF6FF0300EA41
:100BF0000300A24B40EA030040EA02004FF0E0236A
:100C0000C3F80C0D70472DE9F0410746884614469D
:100C10001D462846FFF7E2FFC5F1040007FA00F67B
:100C20000F20284100EA0800064306F00F06E217ED
:100C300004EBD26252114FF0E02303EB8202D2F8B0
:100C400000212146E31704EBD3635B11A4EB431CA3
:100C5000012303FA0CF31A432046E31704EBD36392
:100C60005B114FF0E02C0CEB8303C3F800218448A8
:100C7000005D40EA061082490855BDE8F08170B574
:100C800004460B46CE1701EB9676B010CE1701EB5B
:100C90009676B610A1EB8606B606350E794B9B69A3
:100CA00043F00103774EB3614FEAB63353F8203077
:100CB0000F26AE40B343744E46F82030334653F807
:100CC000203004FA05F633436F4E46F820306F4B60
:100CD0001E684FF0010303FA01F346EA03066C4B6A
:100CE000C3F8006412F0010F0AD06A4B1B684FF082
:100CF000010606FA01F643EA0603654EC6F80C340F
:100D000012F0020F0AD0644B1B684FF0010606FA7E
:100D100001F643EA06035E4EC6F8083470BD00B51E
:100D2000002058490861C86014204861002088618B
:100D3000C8610846006840F0010008600846406845
:100D4000564908404F4948600846006854490840E1
:100D50004C4908600846006820F480200860084676
:100D6000406820F4FE0048600020886000214FF0B9
:100D70000060FFF72DFF00BD10B54A48006840F045
:100D800004004FF0E021C1F8100D3E48C06940F06A
:100D900080503C49C8614448406840F480704249F2
:100DA00048600846006840F0040008600846006893
:100DB00040F002000860FFF75FFA10BD2F48001DE9
:100DC0002D4908607047014649062E4A926942F053
:100DD00001022C4B9A612E4A526822F0E0622C4BA1
:100DE0005A601A4652680A435A60704730B5044642
:100DF0000025FFF794FF2348006840F48030214924
:100E0000086000BF1F480068400CFBD04FF48060B2
:100E10001C494860A01EC4B20846406840EA8440AD
:100E200048600846406840F4803048601F480068C9
:100E300040F032001D4908601248006840F08070A0
:100E40001049086000BF0F480068400EFBD00D48F5
:100E5000406840F002000B49486005E009484068DE
:100E6000C0F3870505F00305022DF7D130BD000062
:100E700080FFFF1F08ED00E00CED00E00000FA0528
:100E800000E400E0001002400800014000040140BE
:100E9000000001400C040140080401400000FFF87C
:100EA000FFFFF6FE10ED00E0007000400020024061
:100EB000014600BF7047664A12784AB900BF654ACA
:100EC000128812F0400FFAD0C2B2634B1A8008E0C9
:100ED00000BF624A128812F0400FFAD0C2B2604BD3
:100EE0001A8070475E49088000BF5C49098811F08C
:100EF000400FFAD070475949098811F0200F33D0BC
:100F000057490988C8B25749098811F4004F2BD1B5
:100F10005449098811F4804F0CD00A2803D00021CD
:100F2000504A118020E04F49098841F400414D4A60
:100F3000118019E00D2806D14A49098841F4804101
:100F4000484A118010E047490988C1F30D01464A1B
:100F5000505444490988491C424A11801146098865
:100F60001D2901DD0021118070472DE9F05F054644
:100F70000E46300108F000F881463C4905FB01F0BF
:100F800007F0FAFF8246494607F0ACFE07463846AE
:100F900007F0BAFF84B2204607F0EEFF83463946D9
:100FA00008F036F982464FF0834108F02DF881466B
:100FB00007F0AAFF8046240104EB080084B22C4805
:100FC000806940F004002A4988610846806940F43D
:100FD000804088612748006820F47F602649C1F876
:100FE00004080846D0F8040840F40B60C1F804086F
:100FF0001F48C06840F480401D49C8600846C0686A
:1010000020F48040C8601D48A0F808481C480088AB
:1010100042F20C0140EA01001849A1F80C08084608
:10102000B0F80C0840F48070A1F80C080846B0F83D
:101030000C0840F02000124908804FF002034FF0E6
:1010400025024FF003010846FFF7DDFDBDE8F09FE4
:1010500002000020004800400448004000380140E1
:10106000043801403C000020C802002040420F002C
:10107000001002400408014000000140003001401F
:101080000C3801402648806940F0100024498861EE
:101090000846806940F0080088612248406820F4D2
:1010A0007000204948600846406840F4401048609D
:1010B0000846C06840F40050C8601B48006820F033
:1010C0000F101A49C1F8000C0846D0F8000C40F087
:1010D0000310C1F8000C16480068C1F80C0C084653
:1010E000D0F80C0C40F00100C1F80C0C704718B996
:1010F0000021104A116011E00F490968491C0E4A8D
:10110000116081420AD10B4909686FEA01010B4A5B
:10111000C2F8B4114FF00001074A11607047000097
:101120000010024000100140000C0140000001408E
:101130000C0C0140B4012242440000200000224275
:101140005748806940F00400554988615548006857
:1011500020F070405449C1F804080846D0F804084B
:1011600040F00040C1F804080846D0F80C0840F4EC
:101170000040C1F80C08704701464C48006828B987
:101180004B480088401C4A4A108002E00020484A30
:1011900010804648006828B94648007810B90120F8
:1011A000444A107044480078B0B942480078012899
:1011B00007D142480078401C404A107001203E4A46
:1011C00010703E480078022806D100203B4A10707B
:1011D0003B4A10800220704734480068012804D13F
:1011E0000020344A1070344A1070344800780128C6
:1011F0001CD133480088401C314A108010460088BA
:1012000088420ADD2A480088884206DA00202B4AF4
:1012100010702B4A10800120DDE7254800888842A5
:1012200004DD0020254A1070254A10800020D2E7F6
:101230002448007838B11D48006820B900202149B1
:1012400008700120704719480068012801D11D4924
:1012500008700020F6E71C48008840B91348006871
:1012600028B91A480088401C1849088002E000206C
:101270001649088015480088C82807DD0120124952
:101280000880002011490880012070470E4800881E
:10129000012802D100200C4908800020F5E7000059
:1012A0000010024004080140000001403C012142BE
:1012B0004E00002048000020490000204A00002085
:1012C0004C0000205000002054000020520000205C
:1012D000FC48806940F00800FA498861FA480068D3
:1012E00020F0FF00F949C1F8040C0846D0F8040CBE
:1012F00040F03300C1F8040C704710B5F2480068A4
:1013000020F0F000F149C1F8040C0846D0F8040CB4
:1013100040F03000EC4908604FF00100EC49C1F8A2
:10132000A4010846D0F8240108B9002010BD01200E
:10133000E8490860FFF712FC0020E549C1F8A40164
:10134000E548006808B10020F0E70120FFF706FC3F
:101350000020E04908604FF00100E7E710B5DA48E7
:10136000006820F0F000D949C1F8040C0846D0F814
:10137000040C40F03000D44908604FF00000D5491B
:101380000860D349C1F8A4014FF00100FFF7E6FB64
:101390000120D0490860CE49C1F8A401FFF7DEFB67
:1013A00010BD10B50024C848006820F0F000C749FF
:1013B000C1F8040C0846D0F8040C40F08000C24983
:1013C00008604FF00100C5490860FFF7C7FB012026
:1013D000BF49C1F8A001FFF7C1FB0AE0601CC4B21D
:1013E000322C03DDFFF7BAFF002010BD0120FFF70C
:1013F000B5FBB94800680028F0D1B64908604FF045
:101400000100F2E710B50020B2490860AF48D0F8FB
:10141000040C20F0F000AD49C1F8040C0846D0F8E7
:10142000040C40F03000A84908604FF00000A849C3
:10143000C1F8A4014FF00100FFF790FB0120A4497F
:10144000C1F8A001FFF78AFB0020A149C1F8A00163
:1014500010BD10B500209F4908609C48D0F8040CCE
:1014600020F0F0009949C1F8040C0846D0F8040CAB
:1014700040F03000944908604FF001009449C1F8F1
:10148000A401FFF76BFB01209149C1F8A001FFF710
:1014900065FB00208E49C1F8A00110BD70B504465F
:1014A0008948006820F0F0008849C1F8040C08461B
:1014B000D0F8040C40F03000834908604FF0000081
:1014C00084490860054619E0E009844908604FEA4C
:1014D00044604FEA10644FF00100FFF73FFB01202A
:1014E0007B49C1F8A001FFF739FB0020794908606A
:1014F0004FF00100FFF732FB681CC5B2082DE3DB9B
:1015000070BD2DE9F04105460E4617469846FFF797
:10151000F4FE10B90120BDE8F0816906080EFFF75E
:10152000BDFFFFF73EFF18B9FFF718FF0120F2E7F4
:101530003046FFF7B3FFFFF734FF00240BE018F845
:101540000400FFF7ABFFFFF72CFF18B9FFF706FF0A
:101550000020E0E7641CBC42F1DBFFF7FFFE002047
:10156000D9E770B5054600245748006820F0F00020
:101570005649C1F8040C0846D0F8040C40F080002D
:10158000C1F8040C4FF0000616E000205149086035
:101590004FF00200FFF7E2FA01204D49C1F8A00127
:1015A0006006040E4C48006808B1601CC4B20220FA
:1015B000FFF7D4FA701CC6B2082EE6DB15B1FFF7B0
:1015C00021FF01E0FFF745FF204670BD2DE9F04106
:1015D00006460F4614461D46FFF78FFE10B9012040
:1015E000BDE8F0817106080EFFF758FFFFF7D9FE3E
:1015F00018B9FFF7B3FE0120F2E73846FFF74EFFB8
:10160000FFF7CFFEFFF779FE012101EB4601C8B2DB
:10161000FFF744FFFFF7C5FE0DE0012C04D10020C9
:10162000FFF79FFF287003E00120FFF79AFF287063
:101630006D1C601EC4B2002CEFD1FFF78FFE00209E
:10164000CEE770B505460E460024FFF756FE284645
:10165000FFF724FF641CFFF7A4FE3046FFF71EFFD0
:10166000641CFFF79EFEFFF748FE681CC0B2FFF740
:1016700015FF641CFFF795FE0020FFF772FF04467C
:10168000FFF76CFE204670BD2DE9F04180460F4605
:1016900015461E460024FFF730FE4046FFF7FEFECB
:1016A000FFF77FFE3846FFF7F9FEFFF77AFEFFF7F8
:1016B00024FE08F10100C0B2FFF7F0FEFFF771FE53
:1016C00000BF1BE000100240040C0140000001407C
:1016D00000802142A081214224812142A481214213
:1016E000681EA04204D00120FFF73BFF305503E005
:1016F0000020FFF736FF3055601CC4B2AC42EFDB70
:10170000FFF72CFE2046BDE8F0812DE9F041804630
:101710000D4616461F460024FFF7EFFD4046FFF733
:10172000BDFEFFF73EFE2846FFF7B8FEFFF739FE85
:1017300000BF06E0385DFFF7B1FEFFF732FE601C28
:10174000C4B2B442F6DBFFF709FE0120BDE8F08128
:1017500070B505460E46144631462846FFF771FF20
:101760002070012070BD37B504460D4602AB012242
:1017700029462046FFF7C9FF3EBD2DE9F84307463D
:10178000884614461D46089E6A4641463846FFF77D
:10179000DFFF38B3601CFF2101FA00F0C4F108013B
:1017A0002944491EFF220A41104300F0FF09C5F1F8
:1017B000080006FA00F0C6B2C4F1070046FA00F0CD
:1017C000C6B29DF8000000EA090000909DF80000F4
:1017D000304300909DF8002041463846FFF7C3FF94
:1017E000BDE8F8830020FBE7F8B506460F4614462F
:1017F0001D466A4639463046FFF7AAFF2DB1012043
:10180000A0409DF80010084305E00120A0409DF88D
:10181000001021EA0000C0B200909DF80020394677
:101820003046FFF7A0FFF8BD2DE9F05F05460E46F4
:10183000300107F0A1FB8146404905FB01F007F0AC
:101840009BFB8246494607F04DFA0746384607F0AB
:101850005BFB84B2204607F08FFB8346394607F0D6
:10186000D7FC82464FF0834107F0CEFB814607F05C
:101870004BFB8046240104EB080084B230488069A9
:1018800040F008002E4988610846C06940F4802075
:10189000C8612C48006820F47F402B49C1F8040C33
:1018A0000846D0F8040C40F40B40C1F8040C08467C
:1018B000D0F80C0C40F48060C1F80C0C2048006992
:1018C00040F480201E4908610846006920F4802009
:1018D00008614FF04020A0F808481C48008842F2F8
:1018E0000C0140EA01004FF04021A1F80C08084625
:1018F000B0F80C0840F48070A1F80C080846B0F865
:101900000C0840F02000114908804FF002034FF00E
:1019100027024FF001010846FFF775F9BDE8F09F77
:101920000B48008810F0200F07D00A4800880A49A9
:1019300008704FF0010009490870704740420F00DD
:1019400000100240040C0140000001400C4800401F
:101950000048004004480040580000205600002085
:1019600010B51448806940F0080012498861124897
:10197000006820F470001149C1F8000C0846D0F846
:10198000000C40F40000C1F8000C0846D0F80C0C24
:1019900040F02000C1F80C0C4FF001024FF005019F
:1019A0001046FFF76CF90223172219460120FFF7B2
:1019B0002AF910BD00100240000C01400000014057
:1019C00010B50446A0B2FFF7E4F810BD10B5044608
:1019D00000F0AAF9782000F073FA00F0F4F9402042
:1019E00000F06EFA00F0EFF9204600F069FA00F01E
:1019F000EAF900F0C2F910BD10B5044600F094F900
:101A0000782000F05DFA00F0DEF9002000F058FACE
:101A100000F0D9F9204600F053FA00F0D4F900F0B4
:101A2000ACF910BD70B504460D4605F1B001C8B261
:101A3000FFF7E2FF210941F01000FFF7DDFF04F09E
:101A40000F0141F00100FFF7D7FF70BD70B50646EA
:101A5000002415E004F1B001C8B2FFF7CDFF01206A
:101A6000FFF7CAFF1020FFF7C7FF002504E030464C
:101A7000FFF7ACFF681CC5B2802DF8DB601CC4B258
:101A8000082CE7DB70BD70B5002415E004F1B0014F
:101A9000C8B2FFF7B1FF0120FFF7AEFF1020FFF73C
:101AA000ABFF002504E00020FFF790FF681CC5B2E3
:101AB000802DF8DB601CC4B2082CE7DB70BD10B5CC
:101AC00000F016F94FF4FA70FFF77AFFAE20FFF737
:101AD00093FF4020FFF790FFB020FFF78DFFC82055
:101AE000FFF78AFF8120FFF787FFFF20FFF784FFC2
:101AF000A120FFF781FFA620FFF77EFFA820FFF7B8
:101B00007BFF1F20FFF778FFD320FFF775FF002032
:101B1000FFF772FFD520FFF76FFFF020FFF76CFF94
:101B2000D920FFF769FF2220FFF766FFDA20FFF7D1
:101B300063FF0220FFF760FFDB20FFF75DFF492016
:101B4000FFF75AFF8D20FFF757FF1420FFF754FFD0
:101B5000AF20FFF751FF0020FFF778FF0021084674
:101B6000FFF760FF10BD2DE9F04704468846154693
:101B70004FF000090026002720E0E85D203800F043
:101B8000FF097E2C04DD002408F1010000F0FF08AD
:101B900041462046FFF746FF002609E009EB4901D0
:101BA000514A02EB4101885DFFF710FF701CC6B27D
:101BB000062EF3DBA01DC4B2781CC7B2E85D002876
:101BC000DBD1BDE8F0872DE9F04105460E4617460A
:101BD0004FF000080024A7F1200000F0FF087E2D40
:101BE00002DD0025701CC6B231462846FFF71AFFF9
:101BF000002409E008EB48013B4A02EB4101085D83
:101C0000FFF7E4FE601CC4B2062CF3DBBDE8F081F4
:101C100010B50246012000E050430B00A1F1010184
:101C2000FAD110BD2DE9F05F06468A4690461D4662
:101C30004FF006094FF0000B002429E0281B411E3D
:101C40000A20FFF7E5FFB8FBF0F00A21B0FBF1F244
:101C500001FB1200C7B2BBF1000F0DD1681EA042FC
:101C60000ADD3FB909FB0461C8B230225146FFF7D3
:101C7000AAFF0BE04FF0010B09FB0461C8B207F1AA
:101C80003001CAB25146FFF79EFF00BF601CC4B2CC
:101C9000AC42D3DBBDE8F09F2DE9F04180460E4613
:101CA000174600247D0131464046FFF7BBFE00BFCA
:101CB00006E00E49485DFFF789FE6D1C601CC4B24A
:101CC000102CF6DB701CC1B24046FFF7ABFE0024BF
:101CD00006E00649485DFFF779FE6D1C601CC4B242
:101CE000102CF6DBBDE8F081069400085A000020B5
:101CF000A848806940F00800A6498861A6480068A5
:101D000020F07F40A549C1F8000C0846D0F8000C2F
:101D100040F04C50A04908604FF00100A049086015
:101D2000A049C1F89C01704710B59B48006820F09D
:101D300070409A49C1F8000C0846D0F8000C40F0F9
:101D40004050954908604FF0010097490860954957
:101D5000C1F898014FF00400FEF700FF0020914900
:101D6000C1F89C010420FEF7F9FE00208D49C1F85E
:101D700098010420FEF7F2FE10BD10B586480068F9
:101D800020F070408549C1F8000C0846D0F8000CDE
:101D900040F04050804908604FF0000080490860E2
:101DA0008049C1F89C014FF00400FEF7D7FE0120E6
:101DB0007C49C1F898010420FEF7D0FE0120794942
:101DC000C1F89C0110BD10B500247348006820F0D4
:101DD00070407249C1F8000C0846D0F8000C40F081
:101DE00000406D4908604FF001006F490860FEF740
:101DF000B5FE01206B49C1F89801FEF7AFFE07E080
:101E0000601CC4B2FA2C03DDFFF7B7FF012010BD40
:101E1000664800680028F3D16149086000BFF6E712
:101E200010B500205E4908605C48D0F8000C20F036
:101E300070405A49C1F8000C0846D0F8000C40F038
:101E40004050554908604FF000005649C1F89C01C8
:101E50004FF00200FEF782FE01205249C1F89801BE
:101E60000220FEF77BFE00204E49C1F8980110BD0C
:101E700010B500204A4908604848D0F8000C20F00E
:101E800070404649C1F8000C0846D0F8000C40F0FC
:101E90004050414908604FF001004249C1F89C019F
:101EA0004FF00200FEF75AFE01203E49C1F89801AA
:101EB0000220FEF753FE00203A49C1F8980110BDF8
:101EC00070B504463448006820F070403349C1F8CA
:101ED000000C0846D0F8000C40F040502E49086035
:101EE0004FF000002E49086005461AE0E0092E492F
:101EF00008604FEA44604FEA10644FF00200FEF7BA
:101F00002DFE01202749C1F898010220FEF726FE88
:101F10000020234908604FF00200FEF71FFE681CF6
:101F2000C5B2082DE2DB70BD70B5054600241A4825
:101F3000006820F070401949C1F8000C0846D0F83C
:101F4000000C40F00040C1F8000C4FF0000616E015
:101F50000020134908604FF00200FEF7FFFD01204A
:101F60001049C1F898016006040E1048006808B1D5
:101F7000601CC4B20120FEF7F1FD701CC6B2082E31
:101F8000E6DB15B9FFF774FF01E0FFF749FF2046D4
:101F900070BD000000100240000C01400000014034
:101FA00098812142008021429C8121421C81214252
:101FB000F0B503460C461546642093FBF0F0C6B21C
:101FC000642093FBF0F700FB1730C1B2132E02DD43
:101FD00001F16400C1B20846CF1701EB977701EB1E
:101FE000A702072092FBF0F700FB172082B25719D7
:101FF000601EDFF810C41CF80000384482B2CF170E
:1020000001EB9777BF10B1EB870703D1032C01DAFF
:10201000501E82B2072092FBF0F700FB1720C0B2DF
:10202000F0BD0146CA1701EB92729210B1EB820229
:1020300012D1642091FBF0F200FB121050B94FF462
:10204000C87091FBF0F200FB121008B90120704734
:102050000020FCE70120FAE70020F8E770B5002631
:1020600000240025E84806884FEA0646E748B0F80D
:102070001C080644E648B6FBF0F4E6480088A04297
:102080003CD0E4490C8040F2B27510E02846FFF7DE
:10209000C8FF40B1B4F5B77F02D3A4F5B77404E02C
:1020A000681C85B206E0A4F26D14681C85B2B4F514
:1020B000B67FEBD800BFD8488580002516E0D6490A
:1020C0008888FFF7AEFF30B1012D04D11D2C01D35C
:1020D0001D3C09E00CE0D148405DA04203D8CF4848
:1020E000405D241A00E003E0681C85B21C2CE6D297
:1020F00000BF681CC8498871601CC871C448B6FB21
:10210000F0F100FB11644FF46160B4FBF0F0C249E0
:1021100008704FF46160B4FBF0F100FB11403C210A
:10212000B0FBF1F0BC4948704FF46160B4FBF0F1D2
:1021300000FB11403C21B0FBF1F201FB1200B6495B
:1021400088700B46DA7999799888FFF731FFB249A0
:102150000872002070BD2DE9F04F06460F469046EC
:102160009946DDE909AB002440F2B270864203DBF8
:1021700040F63300864202DD0120BDE8F08F40F2D8
:10218000B2750AE02846FFF74CFF10B1A44804449A
:1021900001E0A4480444681C85B2B542F2DB781E15
:1021A000C7B2002510E09D48405D40F2A32148439E
:1021B00004EBC0143046FFF734FF18B1012D01D1F4
:1021C00093480444681C85B2BD42ECDBA8F10100D1
:1021D00040F2A321484304EBC014C9EB4910C0EB03
:1021E000092004EB0014CAEB0A1004EB80045C44E1
:1021F0008D48C06940F080508B49C8610846C0696D
:1022000040F00060C8618948006840F480708749E8
:1022100008608748008840F010007C49A1F8040855
:1022200084490C804FEA14407849A1F81808084600
:10223000B0F8040820F01000A1F8040800BF7C48A2
:10224000008810F0200FFAD0FFF708FF002094E775
:102250001CB5002478480088A0F5A04150397ED0F4
:102260007148C06940F080506F49C8610846C06934
:1022700040F00060C8616D48006840F480706B49B0
:1022800008606948006A40F480306749086208467F
:10229000006A20F4803008620846006A40F00100BD
:1022A000086204E0601CC4B20A20FEF772FC5E48BB
:1022B000006A10F0020F01D1FA2CF3DBFA2C01DBDB
:1022C00001201CBD5848006A40F4807056490862DD
:1022D0000846006A40F40040086200BF5448008885
:1022E00010F0200FFAD000BF5148008810F0080FFE
:1022F000FAD05248008840F001004449A1F8000893
:1023000000BF4B48008810F0200FFAD048480088E2
:1023100040F010003D49A1F804084FF00000484982
:10232000088047F6FF703949A1F80C084FF0000308
:102330004FF00A02CDE9002313464FF003024FF09D
:10234000050140F2E370FFF706FF3048B0F80408DB
:1023500020F010002D49A1F8040800BF00E00CE0B7
:102360003348008810F0200FF8D045F25000324971
:10237000088034A003F040FF15E000BF2C4800881F
:1023800010F0080FFAD02D48008840F001001F49D6
:10239000A1F8000800BF2648008810F0200FFAD0EE
:1023A0002BA003F029FF0223032200210846FEF799
:1023B0002AFCFFF753FE002083E700B51C48008885
:1023C00010F0010F01D0FFF749FE1948008810F006
:1023D000020F06D01648008820F002000B49A1F831
:1023E00004081348008840F6FA7100EA0100074922
:1023F000A1F8040800BF0E48008810F0200FFAD0A2
:1024000000BD00002AA0000818280040002000405D
:10241000805101005A020020E602002036A0000888
:102420000085E2018033E1010010024000700040AD
:10243000042800401C280040046C00400028004094
:102440000828004046495253542054494D450A003B
:102450004F4B0A0089488A4948608A48486070475B
:102460008748006940F080008549086170478448CA
:10247000C16811F0010F01D00120704711F0040F65
:1024800001D00220F9E711F0100F01D00320F4E78A
:102490000020F2E770B5044600BFFFF7E8FF0546ED
:1024A000012D00D006E00120FEF758FB601E84B22B
:1024B000002CF2D100BF04B9FF25284670BD70B5CD
:1024C0000546002445F6FF70FFF7E4FF0446C4B953
:1024D0006B48006940F0020069490861084645619F
:1024E000006940F04000086145F6FF70FFF7D2FF39
:1024F0000446012C05D06248006920F002006049C2
:102500000861204670BD70B505460E46FF20FFF7F6
:10251000C1FF044694B95A48006940F00100584987
:1025200008612E80FF20FFF7B5FF0446012C05D07F
:102530005348006920F0010051490861204670BDF0
:102540000146088870472DE9F04105460E461746BA
:10255000002407E036F814102846FFF7D4FFAD1C1E
:10256000601C84B2BC42F5DBBDE8F08130B50346A7
:102570000C461546002207E01846FFF7E1FF24F855
:1025800012009B1C501C82B2AA42F5DB30BD2DE923
:10259000F05F80468A461746B8F1006F02D33A488A
:1025A000804501D3BDE8F09FFFF754FFA8F1006B11
:1025B0004FEADB25CBF34909C9F58064A74200DC6B
:1025C0003C464DE04FF0006101EBC5204A142F4915
:1025D000FFF7CCFF00260BE009EB06002B4931F892
:1025E0001000A0F57F41FF3900D003E0701C86B2D7
:1025F000A642F1DB00BFA6421BDA4FF0006101EBFF
:10260000C520FFF75CFF002608E03AF8160006EB4D
:1026100009011E4A22F81100701C86B2A642F4DBA2
:102620004FF0006101EBC5204A141849FFF78BFFFA
:1026300004E0224651464046FFF785FFA74200D1FD
:102640000FE06D1C4FF000090AEB440AA044381B50
:1026500087B2B7F5806F02DD4FF4806400E03C463E
:10266000B0E700BFFFF7FCFE00BF9BE713B50446D1
:10267000012201A92046FFF78AFF1CBD23016745FF
:1026800000200240AB89EFCD00000808F0020020D6
:1026900060B19849098841F001014FF08042A2F8E9
:1026A00000184FF00001944A118007E09149098811
:1026B00021F001014FF08042A2F80018704700B5E8
:1026C0008E48008810F0200F1FD08D480088C3B2BC
:1026D0008C480088B0F5487F11DA002086490880D0
:1026E0008848008810B90120FFF7D2FF854801888B
:1026F0000088401C834A10808348435405E0814889
:10270000008840F400407F49088000BD70B5044651
:102710000D467E48C06940F004007C49C8617C4891
:1027200004804FF08040A0F82858B0F80C0840F022
:1027300001004FF08041A1F80C080846B0F80008ED
:1027400040F00100A1F800084FF002034FF01E0214
:102750004FF003014FF00100FEF755FA70BD70B560
:1027600004460E4615466948406940F00100674935
:1027700048610520FEF7F2F9A660E56000202060C0
:10278000206840F0100020602068206020682060F1
:10279000206840F080002060206820602068206071
:1027A000206840F4805020602068206070BD70B5C3
:1027B00004460D465548806940F00400534988613D
:1027C0005448006820F47F405349C1F80008084687
:1027D000D0F8000840F40B40C1F800084B48C0692D
:1027E00040F400304949C8610846006940F40030AF
:1027F00008610846006920F400300861474804FB7E
:1028000000F0B0FBF5F04FF04021A1F80804444877
:10281000008842F20C0140EA0100414908804FF073
:1028200080004FF04021A1F8140435493D4A3E484C
:10283000FFF795FF4FF04020B0F80C0440F4807093
:102840004FF04021A1F80C040846B0F80C0440F009
:102850002000A1F80C040223262203211846FEF7CB
:10286000D2F941F61F4140F2E730FFF74FFF002059
:10287000244908800120FFF70BFF70BD026822F099
:10288000010202604160026842F00102026070478A
:102890000FB438B505A800902248009A049903F0B7
:1028A00099FC00BF214800680028FBD11D4803F0B7
:1028B000DEFD84B221461C48FFF7E0FF38BC5DF81E
:1028C00014FB00B51A48008810F0010F11D00D4814
:1028D000008840F400400B4908801548008820F02B
:1028E00001004FF08041A1F810084FF00000FFF701
:1028F000CFFE00BD00080040240800400044004016
:10290000044400405C020020100E00200010024031
:102910002C080040000801400000014040420F0028
:102920000C440040F00A0020800002408400024075
:102930001008004010B5044603F0F5F8314800686F
:102940003149086031480068314908603149B1F9BE
:10295000020006F0F9FA304908602E49B1F9040086
:1029600006F0F2FA2D4908602D49B1F9040006F08D
:10297000EBFA2C49086010BD10B52B48006840BB2D
:1029800020202A4908602A48007808B9012000E080
:102990000020274908702748007801280BD12648D5
:1029A0000078401CC0B2244908700A2803D10020D6
:1029B0000870204908701E480078012805D11F487A
:1029C0000078FFF7B7FF002010BD1C480078FFF724
:1029D000B1FF0020F8E710B53220FEF7CDFB04462A
:1029E000012C07D11648007808B9012000E000202A
:1029F0001349087010BD0146002901DA484200E081
:102A000008467047BC02002018000020C0020020C9
:102A10001C000020AC020020200000202400002028
:102A2000B20200202C000020148121421404014035
:102A30005E02002029000020280000200000002065
:102A40000100002038B50446FB4890F82400C0B1CE
:102A500014B10220009001E000200090F64A1268B4
:102A6000D17BF54A526810786B460122FEF749FD8A
:102A700010B14FF0FF3038BD9DF80010EE484174A2
:102A800023E0ED48807A10B94FF0FF30F3E724B12E
:102A9000E948407C08B10020EDE714B10120009026
:102AA00001E000200090E44A1268D17BE24A5268BB
:102AB00010786B460122FEF724FD10B14FF0FF3075
:102AC000D9E79DF80010DC4841740020D3E738B501
:102AD000002419E0D8480068C07AA04204D0D64843
:102AE0000068407DA04200D10CE0D34949680878D5
:102AF0006B4601222146FEF769FD10B14FF0FF3011
:102B000038BD00BF601CC4B2CB4840680079A04209
:102B1000E0DC0020F4E770B504460D46C6480068C6
:102B2000C07AA04204D0C4480068407DA04202D1CF
:102B30004FF0FF3070BDC04840680079A04202DC11
:102B40004FF0FF30F6E7BC49496808782B46012270
:102B50002146FEF73BFDEDE738B50446B64890F850
:102B60002300A04201D1002038BD14B130200090D4
:102B700001E000200090B048807C20B19DF800006A
:102B800040F002000090AC4890F8220020B19DF87F
:102B9000000040F080000090A74A1268117DA64A0C
:102BA000526810786B460122FEF7ABFC10B14FF073
:102BB000FF30D9E7A04880F823400020D4E738B59B
:102BC000044614F0700F02D00120009005E014B10B
:102BD0000020009001E040200090974A1268917C0C
:102BE000954A526810786B460122FEF78AFC20B1A4
:102BF000002191488172481E38BD9DF8000020F0E8
:102C000040008D4908730020009014F0400F04D15B
:102C10009DF8000040F00400009014F0200F04D153
:102C20009DF8000040F00200009014F0100F04D155
:102C30009DF8000040F00100009014F0080F04D14E
:102C40009DF8000040F0380000907B4A1268D17C6B
:102C5000794A526810786B460122FEF752FC20B187
:102C6000002175488172481EC6E724B1082C02D0A5
:102C70000020FFF771FF7048847200210175322037
:102C8000FDF787FF0020B7E738B504466A48807C27
:102C9000A04201D1002038BDF4B3674A126811790F
:102CA000654A526810786B460122FEF78FFC10B11E
:102CB0004FF0FF30EFE79DF8000020F0200000907B
:102CC0005D4A126811795C4A526810786B4601229D
:102CD000FEF717FC10B14FF0FF30DCE70320FDF7E3
:102CE00058FF02200090544890F8220020B19DF82F
:102CF000000040F0800000904F4890F8230020B181
:102D00009DF8000040F0300000904B4A1268117DA1
:102D1000494A5268107800E007E06B460122FEF74E
:102D2000F0FBC0B34FF0FF30B5E7434A12681179AA
:102D3000414A526810786B460122FEF747FC10B1F9
:102D40004FF0FF30A7E73C48807A10F0010F05D024
:102D50009DF8000040F02000009004E09DF8000085
:102D600020F020000090344A12681179324A5268EB
:102D700010786B460122FEF7C4FB10B14FF0FF3014
:102D800089E70320FDF705FF2B4890F8220018B1D2
:102D90008020009002E018E000200090264890F883
:102DA000230020B19DF8000040F030000090224A3E
:102DB0001268117D204A526810786B460122FEF796
:102DC000A0FB10B14FF0FF3065E71B488474002072
:102DD00061E708B51848807A10B94FF0FF3008BD98
:102DE00000200090144A1268D17B134A5268107870
:102DF0006B460122FEF785FB10B14FF0FF30EEE786
:102E00000D4A126851790C4A526810786B460122BB
:102E1000FEF777FB10B14FF0FF30E0E7064A12688B
:102E20001179054A526810786B460122FEF769FB5A
:102E300020B14FF0FF30D2E760020020F84890F850
:102E4000240078B30C200090F54A12681179F44AF6
:102E5000526810786B460122FEF753FB10B14FF019
:102E6000FF30BCE7C0200090ED48807A10F0010FE1
:102E700004D09DF8000040F020000090E84A12685D
:102E80001179E74A526810786B460122FEF739FB48
:102E900010B14FF0FF30A2E7E148407C18B10220AA
:102EA000009002E01FE000200090DD4A1268D17B14
:102EB000DB4A526810786B460122FEF722FB10B104
:102EC0004FF0FF308BE700200090D54A126851790F
:102ED000D34A526810786B460122FEF712FB98B372
:102EE0004FF0FF307BE704200090CD4A1268117943
:102EF000CB4A526810786B460122FEF702FB10B1F4
:102F00004FF0FF306BE7C648807C20B9C448807A18
:102F100010F0010F02D14020009001E060200090ED
:102F2000BF4A12681179BE4A526810786B46012276
:102F3000FEF7E7FA10B14FF0FF3050E7B848407C99
:102F400018B10120009002E01EE000200090B44A79
:102F50001268D17BB24A526810786B460122FEF7A4
:102F6000D0FA10B14FF0FF3039E7AD4A126851790D
:102F7000AB4A52681078AA4B10330122FEF7C1FA0F
:102F800010B14FF0FF302AE7002028E770B5044663
:102F9000002624F00104A24890F8240008B1002083
:102FA00070BD9F48807A10B94FF0FF30F8E79C4819
:102FB000057C807A20409A4908740846007CA0422B
:102FC00002D04FF0FF3600E0002614B99448007D8F
:102FD00018B10120FFF736FD02E00020FFF732FDB7
:102FE0003CB1FFF7F6FE20B18D4805744FF0FF307D
:102FF000D6E73046D4E738B504468948807A10B918
:103000004FF0FF3038BDBC2C02DB0120009015E0F2
:10301000622C02DB0220009010E02A2C02DB03204D
:1030200000900BE0142C02DB0420009006E00A2C38
:1030300002DB0520009001E0062000907848C07A6D
:103040009DF80010884201D10020DBE7744A126825
:103050009178734A526810786B460122FEF751FA54
:1030600010B14FF0FF30CDE79DF800106C48C172F1
:103070000020C7E738B50446282C02DD4FF0FF30AA
:1030800038BDDCB90020FFF767FD00208DF8000097
:1030900007208DF80100624A1268917C604A5268EC
:1030A00010786B460222FEF72CFA10B14FF0FF3079
:1030B000E6E700215A4801750020E1E70120FFF70B
:1030C0004BFD20208DF80000012C06D100208DF84A
:1030D00001000520FFF78FFF17E0052C06DC01201B
:1030E0008DF801000520FFF786FF0EE0142C06DCAA
:1030F00002208DF801000A20FFF77DFF05E0032084
:103100008DF801001420FFF776FF9DF801000721DC
:1031100001EB8010C0B28DF80100414A1268917C29
:103120003F4A526810786B460222FEF7EAF910B166
:103130004FF0FF30A4E70821394881720021017364
:10314000012101750020FFF721FF002098E738B525
:1031500004463348807A10B94FF0FF3038BD30480C
:1031600090F8240010B14FF0FF30F7E72C48007DB5
:1031700050B134B1282C04DCE0B2FFF77BFF002013
:10318000ECE70020FFF776FF042C01DA042404E0CA
:10319000B4F57A7F01DD4FF47A744FF47A7090FBC6
:1031A000F4F0401EC0B200901D4A126851781C4ACB
:1031B000526810786B460122FEF7A3F910B14FF068
:1031C000FF30CBE79DF80000401C4FF47A7191FB73
:1031D000F0F081B21248C1810146C9894810FFF759
:1031E0000AFF0020BAE738B504460D48807A10B9C6
:1031F0004FF0FF3038BD022C06D0042C07D0082C2D
:1032000008D0102C0ED108E0002000900DE008201E
:1032100000900AE01020009007E01820009004E0E1
:10322000600200204FF0FF30E4E700BFFA48407A28
:103230009DF80010B0EBE10F01D10020DAE7F64A6B
:103240001268D179F44A526810786B460122FEF771
:1032500058F910B14FF0FF30CCE79DF80000C010D6
:10326000ED4948720020C5E738B50446EA48807A3F
:1032700010B94FF0FF3038BDFA2C09D0B4F5FA7F01
:1032800009D0B4F57A7F09D0B4F5FA6F0CD108E013
:10329000002000900BE00820009008E01020009033
:1032A00005E01820009002E04FF0FF30E3E700BF98
:1032B000D948007A9DF80010B0EBE10F01D1002051
:1032C000D9E7D54A12689179D34A526810786B468B
:1032D0000122FEF716F910B14FF0FF30CBE79DF851
:1032E0000000C010CC4908720020C4E71CB5802043
:1032F0008DF80000C84A1268917CC74A526810785D
:103300006B460122FEF7FDF810B14FF0FF301CBDF7
:103310006420FDF73EFC00208DF80000BE4A1268D4
:10332000917CBD4A526810786B460122FEF7E9F89D
:1033300010B14FF0FF30EAE7B74A1268917DB64A04
:10334000526810786B460622FEF740F910B14FF034
:10335000FF30DCE79DF80500C007400F9DF8031023
:1033600001F0010140EA41009DF8011001F0010166
:1033700040EA010494B1012C03D10121A648C17493
:1033800031E0022C03D10021A348C1742BE0214677
:10339000A2A002F031FF4FF0FF30B8E79E4A12685A
:1033A000D1789D4A526810786B460122FEF70EF9DB
:1033B00010B14FF0FF30AAE79DF8000000F00F04B5
:1033C0002CB9A04802F018FF4FF0FF309FE7042C03
:1033D00006D19DA002F010FF01218F48C17402E0C8
:1033E00000218D48C174FF218B488172FF208A49DA
:1033F0000872FF2188484172C1724FF6FF71C18186
:10340000FF21017481740121017380F822100021D1
:1034100080F82310417501750830C0F80E10C0F80F
:103420001210C0F81610083880F8241080F8251003
:10343000C1844FF4FA60FFF717FF10B14FF0FF306F
:1034400065E70220FFF7CFFE10B14FF0FF305EE7D7
:103450002A20FFF7D0FD10B14FF0FF3057E73220A0
:10346000FFF775FE10B14FF0FF3050E70020FFF777
:103470008DFD10B14FF0FF3049E70020FFF704FC4D
:1034800010B14FF0FF3042E70020FFF798FB00201B
:103490003DE770477CB504460D465F48807A10F0E2
:1034A000700F02D14FF0FF307CBD5B4A1268117B78
:1034B000594A526810786B460622FEF787F810B119
:1034C0004FF0FF30F0E79DF801009DF8001040EA52
:1034D000012000B220809DF803009DF8021040EA10
:1034E000012000B260809DF805009DF8041040EABC
:1034F000012000B2A08015B12846FFF7CAFF0020C6
:10350000D2E77CB504460D464348807A10F0080F98
:1035100002D14FF0FF307CBD3F4A1268517B3E4ADA
:10352000526810786B460622FEF750F810B14FF043
:10353000FF30F0E79DF801009DF8001040EA0120FF
:1035400000B220809DF803009DF8021040EA01209F
:1035500000B260809DF805009DF8041040EA01204B
:1035600000B2A08015B12846FFF793FF0020D2E7F4
:103570002DE9FE4F05460C462748807A18B94FF0D2
:10358000FF30BDE8FE8F244A1268917B224A5268C0
:10359000107802AB0222FEF719F810B14FF0FF309D
:1035A000EFE79DF809009DF8081040EA012006B2F7
:1035B00014B12046FFF76DFF17494968C88805F028
:1035C000DBFC154901904968B1F9080005F0BCFC25
:1035D0008346304605F0B8FC5946009005F022FEBF
:1035E0008246019905F07EFB81461F4905F00CFBE0
:1035F00080464FF08F4105F007FD074605F068FC57
:1036000028600020BDE710B588B004461CB94FF013
:10361000FF3008B010BD29E060020020556E7375C0
:1036200070706F7274656420736F66747761726511
:103630002070726F64756374207265762025642E25
:103640000A00000094A0000848616C662073656E53
:103650007369746976697479207061727420666F19
:10366000756E642E0D0A000000000C42206830B90F
:10367000606820B9A06810B9002008B010BDFA49F0
:103680004968087806AB03221146FDF79FFF10B189
:103690004FF0FF30F1E79DF81800082101EB2010F2
:1036A00000F00F00ADF800009DF8190001EB2010AC
:1036B00000F00F00ADF802009DF81A0001EB201099
:1036C00000F00F00ADF8040020684100BDF90000D3
:1036D000403091FBF0F000B2ADF81000606841009E
:1036E000BDF90200403091FBF0F000B2ADF81200DD
:1036F000A0684100BDF90400403091FBF0F000B239
:10370000ADF81400D8494968087806AB062211467E
:10371000FDF75CFF10B14FF0FF30AEE79DF81900E8
:103720009DF8181040EA012000B2ADF808009DF89D
:103730001B009DF81A1040EA012000B2ADF80A0003
:103740009DF81D009DF81C1040EA012000B2ADF864
:103750000C00BDF81000BDF80810084400B2ADF828
:103760001000BDF81200BDF80A10084400B2ADF810
:103770001200BDF81400BDF80C10084400B2ADF8FA
:103780001400BDF81000000A8DF81800BDF81000F4
:10379000C0B28DF81900BDF81200000A8DF81A00A9
:1037A000BDF81200C0B28DF81B00BDF81400000A6D
:1037B0008DF81C00BDF81400C0B28DF81D00AA4998
:1037C0004968087806AB06221146FDF79AFE10B14B
:1037D0004FF0FF3051E700204FE70146A248007A42
:1037E00030B1012807D0022809D003280FD10AE000
:1037F000FA2008800EE04FF4FA7008800AE04FF4D7
:103800007A70088006E04FF4FA60088002E0002039
:10381000088000BF00BF0020704701469248407AF0
:1038200030B1012807D0022808D003280CD108E0C5
:10383000022008700BE00420087008E008200870DF
:1038400005E01020087002E04FF0FF30704700BF25
:103850008548C07C18B108784006000E087000202A
:10386000F4E701468048C07A082817D2DFE800F064
:103870001704070A0D101318BC20088013E06220FB
:10388000088010E02A2008800DE0142008800AE05B
:103890000A20088007E00520088004E000BF00BF80
:1038A0000020088000BF00BF0020704701466E481E
:1038B00090F8240010B14FF0FF3070476A48C0897B
:1038C00008800020F9E7014600200880401E70476C
:1038D00001464FF0FF30704701466348007A30B12F
:1038E000012807D0022808D003280CD108E05F483F
:1038F00008600BE05E48086008E05E48086005E08C
:103900005D48086002E04FF0FF30704700BF0020C4
:10391000FBE701465448407A30B1012808D002281C
:103920000AD0032810D10BE04FF4804008800EE04D
:1039300041F69C7008800AE04FF48050088006E051
:103940004FF40060088002E04FF0FF30704700BF86
:103950004548C07C10B10888401008800020F5E779
:1039600001464148007C08700020704701463E48EF
:10397000807A10B10120087001E00020087000205A
:10398000704738B504463848807A10B94FF0FF3098
:1039900038BD354A1268117C334A526810786B463C
:1039A0000222FDF713FE10B14FF0FF30F0E79DF853
:1039B00001009DF8001040EA012000B220800020A4
:1039C000E6E72DE9FE4F8046894692461D46DDF822
:1039D00030B000260024244890F8240010B1601E66
:1039E000BDE8FE8F002028701F48807A10B94FF084
:1039F000FF30F5E71C48007C10B94FF0FF30EFE7CF
:103A00001948007C10F0400F01D0B01CC6B2164817
:103A1000007C10F0200F01D0B01CC6B21248007C10
:103A200010F0100F01D0B01CC6B20F48007C10F08F
:103A3000080F01D0B01DC6B20B4A1268917A0A4A2B
:103A4000526810786B460222FDF7C0FD10B14FF0AE
:103A5000FF30C5E79DF801009DF8001040EA0127FE
:103A6000B7420BDA0020BBE76002002000000343EE
:103A7000000083423333034233338341FB484068C1
:103A80004088B7EB600F17DDF84A1268517CF74A9F
:103A9000526810786B460122FDF798FD10B14FF087
:103AA000FF309DE79DF8000010F0100F04D0FFF7E5
:103AB00090F96FF0010093E75046FFF7EAFCEB4AFC
:103AC0001268D17AE94A526810786B463246FDF79F
:103AD0007DFD10B14FF0FF3082E797FBF6F0401EFE
:103AE0008BF8000000202870B4422AD0DF48007C08
:103AF00010F0080F25D0601C1DF800001DF8041000
:103B000040EA012000B2A9F80000E01C1DF80010F6
:103B1000A01C1DF8000041EA002000B2A9F8020034
:103B2000601D1DF80010201D1DF8000041EA002056
:103B300000B2A9F80400287840F008002870A01D01
:103B400084B2B44214D0C948007C10F0400F0FD0AA
:103B5000601C1DF800001DF8041040EA012000B2AE
:103B6000A8F80000287840F040002870A01C84B21B
:103B7000B44214D0BD48007C10F0200F0FD0601C60
:103B80001DF800001DF8041040EA012000B2A8F85A
:103B90000200287840F020002870A01C84B2B442B3
:103BA00014D0B248007C10F0100F0FD0601C1DF82C
:103BB00000001DF8041040EA012000B2A8F804003B
:103BC000287840F010002870A01C84B2002007E77D
:103BD000F8B505460F461646A44890F8240010B9DB
:103BE0004FF0FF30F8BDA148807A10B94FF0FF3098
:103BF000F8E79E4A1268917A9C4A526810786B46A0
:103C00000222FDF7E3FC10B14FF0FF30EAE79DF828
:103C100001009DF8001040EA0124AC4203DA0020C4
:103C20003070401EDEE7914840684088B4EB600F7A
:103C300017DD8E4A1268517C8C4A526810786B46A8
:103C40000122FDF7C3FC10B14FF0FF30CAE79DF829
:103C5000000010F0100F04D0FFF7BBF86FF0010068
:103C6000C0E7824A1268D17A804A526810783B468F
:103C7000EAB2FDF7ABFC10B14FF0FF30B2E794FBB6
:103C8000F5F0401E30700020ACE70146774880F820
:103C90002210002070477CB50546744949680878B1
:103CA00001AB04220D21FDF791FC08B107207CBD7A
:103CB0009DF80700C0F301109DF8041001F0E00129
:103CC00040EAE1008DF800009DF80700C0F3810094
:103CD0009DF8051001F0E00140EAE1008DF80100D7
:103CE0009DF8070000F003009DF8061001F0E001C8
:103CF00040EAE1008DF8020000241CE01DF80400F9
:103D000018B9002045F8240013E0594845F824006C
:103D100006E055F82400574905F076F945F82400E7
:103D20001DF80400401E10F0FF000DF80400F0D153
:103D300000BF601CC4B2032CE0DB0020B7E72DE914
:103D4000FE4F06460F4600256846FFF7A4FF0024F5
:103D500040E056F8240057F82410B0EB010A01D4D3
:103D6000514601E0CAF10001084605F0EDF883462E
:103D70004FF08F4104F0B6FF80465DF8240000212B
:103D800005F072F816D05DF82410404604F0AAFF42
:103D900082464FF07E5105F045FA814629F0004AEF
:103DA0003548416A504605F002FA12D20120A0407F
:103DB00005430EE03048C169404605F0F1F805D3EF
:103DC0002D48016A404605F0F2F902D20120A040D8
:103DD0000543641C032CBCDB2846BDE8FE8F2DE99F
:103DE000FC5F06460F46002520494968087801AB6C
:103DF00003220D21FDF7EAFB10B10720BDE8FC9F6F
:103E00009DF8040000F01F008DF804009DF80500E7
:103E100000F01F008DF805009DF8060000F01F005F
:103E20008DF8060000245FE056F8240057F82410AF
:103E3000B0EB010B01D4594601E0CBF1000108467B
:103E400005F082F84FF08F41009004F04BFF81465F
:103E500001A8005DB8B30849086805F08DF88346ED
:103E60000146064804F03EFF80460EE06002002056
:103E70007B14AE3E1D5A843F6CA0000800B04C4538
:103E8000FF49404605F0C0F8804601A8005D401E8D
:103E900010F0FF0001A90855F2D14146484604F050
:103EA00021FF83464FF07E5105F0BCF982462AF08F
:103EB000004BF4488169584605F079F913D2012086
:103EC000A04005430FE0FFE7EE480169484605F0D2
:103ED00067F805D3EB484169484605F068F902D216
:103EE0000120A0400543641C032C9DDB284685E788
:103EF0002DE9F74F92B006460C4601208DF82000C0
:103F000000208DF82100E04A1268917CDE4A526858
:103F1000107808AB0222FDF7F4FA20B14FF0FF3021
:103F200015B0BDE8F08FC820FCF733FE00208DF8F7
:103F30002000D54A1268D17BD34A5268107808AB6A
:103F40000122FDF7DEFA10B14FF0FF30E8E7CE4A6C
:103F500012685179CC4A5268107808AB0122FDF7FB
:103F6000D0FA10B14FF0FF30DAE7C74A1268917CFF
:103F7000C54A5268107808AB0122FDF7C2FA10B1A9
:103F80004FF0FF30CCE7C04A1268D17DBE4A52687C
:103F9000107808AB0122FDF7B4FA10B14FF0FF30F2
:103FA000BEE7B94A12681179B74A5268107808AB6F
:103FB0000122FDF7A6FA10B14FF0FF30B0E70C2058
:103FC0008DF82000B04A12681179AF4A5268107813
:103FD00008AB0122FDF795FA10B14FF0FF309FE7D3
:103FE0000F20FCF7D6FDA848806A407A8DF82000A3
:103FF000A54A12689178A44A5268107808AB012249
:10400000FDF77FFA10B14FF0FF3089E79E48806AD4
:10401000007A8DF820009C4A126851789A4A5268BA
:10402000107808AB0122FDF76CFA10B14FF0FF30A9
:1040300076E7149838B19448806A807A40F0E000BE
:104040008DF8200004E09048806A807A8DF8200086
:104050008D4A126891798C4A5268107808AB012217
:10406000FDF74FFA10B14FF0FF3059E7149838B10F
:104070008548806AC07A40F0E0008DF8200003E0B7
:104080008048C07A8DF820007F4A1268D1797E4A34
:104090005268107808AB0122FDF733FA10B14FF0E7
:1040A000FF303DE7149810B1C820FCF772FD4020A6
:1040B0008DF82000744A12681179734A526810789A
:1040C00008AB0122FDF71DFA10B14FF0FF3027E7D2
:1040D00078208DF820006C4A126851796A4A52683B
:1040E000107808AB0122FDF70CFA10B14FF0FF3049
:1040F00016E764498889FCF74CFD00208DF8200004
:10410000614A12685179604A5268107808AB0122FE
:10411000FDF7F7F910B14FF0FF3001E75A4A126886
:10412000917A594A5268107808AB0222FDF74EFA8C
:1041300010B14FF0FF30F3E69DF821009DF82010FC
:1041400040EA012006900C21069890FBF1F0C5B2E0
:104150000020B06070603060A060606020600790F8
:1041600065E0494A1268D17A474A5268107808AB2C
:104170000C22FDF72BFA10B14FF0FF30D0E69DF87E
:1041800021009DF8201040EA012000B2ADF8100097
:104190009DF823009DF8221040EA012000B2ADF8FE
:1041A00012009DF825009DF8241040EA012000B27D
:1041B000ADF81400BDF91010206808442060BDF966
:1041C0001210606808446060BDF91410A0680844CB
:1041D000A0609DF827009DF8261040EA012000B25B
:1041E000ADF808009DF829009DF8281040EA01204C
:1041F00000B2ADF80A009DF82B009DF82A1040EAA5
:10420000012000B2ADF80C00BDF908103068084478
:104210003060BDF90A10706808447060BDF90C1078
:10422000B0680844B0600798401CC0B20790079877
:10423000A84296DB1348006803903768F8171022ED
:1042400011903846119901F07AFFCDE90001002361
:10425000039A01F09AFF2A460023CDE9040101F0F8
:1042600094FF3060074800680390D6F804804FEA56
:10427000E870102210904046109901F060FF05E0B0
:1042800054E3853F6CA0000860020020CDE90001E6
:104290000023039A01F079FF2A460023CDE90401A7
:1042A00001F073FF7060FA4800680390D6F8089038
:1042B0004FEAE97010220F9048460F9901F03FFF36
:1042C000CDE900010023039A01F05FFF2A46002395
:1042D000CDE9040101F059FFB060ED48406803905A
:1042E000D4F800A04FEAEA7010220E9050460E99C2
:1042F00001F025FFCDE900010023039A01F045FFFD
:104300002A460023CDE9040101F03FFF2060E04888
:1043100040680390D4F804B04FEAEB7010220D907F
:1043200058460D9901F00BFFCDE900010023039AD7
:1043300001F02BFF2A460023CDE9040101F025FFFF
:104340006060D34840680390A068C1171022CDE98F
:104350000B1001F0F4FECDE900010023039A01F0F7
:1043600014FF2A460023CDE9040101F00EFFA060EE
:10437000A068002804DDA068A0F58030A06003E0FC
:10438000A06800F58030A0600020C9E538B504467B
:10439000C04890F82400A04201D1002038BD24B3C9
:1043A000BC4890F8250010B94FF0FF30F6E7002028
:1043B000FEF748FB0020FEF767FCB649C88CFEF705
:1043C000C6FE00200090B349496808786B46012278
:1043D0002321FDF796F80121AE4880F82410012032
:1043E000FEF730FBFEF7F5FC13E00020FEF72AFB9A
:1043F000A848007C0090A749496808786B460122CC
:104400002321FDF77EF80021A24880F82410FEF752
:10441000E0FC0020C2E72DE9F04F8DB083460F4647
:1044200002200C909B4890F8240020B10020FFF758
:10443000ADFF012600E0002603A8FFF7CEF905A88E
:10444000FFF7EBF901A8FFF70CFA02A8FFF72EFA25
:10445000904890F80AA004A8FFF782FA002407E029
:10446000002239465846FFF743FD00B902E0641CBC
:10447000022CF5DB00BF022C01D1002528E000242E
:1044800007E0012206A909A8FFF732FD00B902E002
:10449000641C022CF5DB00BF022C01D1002517E0C3
:1044A00006A93846FFF74BFC00F0FF0809A958465B
:1044B000FFF795FC00F0FF090025B9F1000F01D1CD
:1044C00045F00105B8F1000F01D145F0020500BF2C
:1044D000FF2070490872FF216E484172C1724FF689
:1044E000FF71C181FF218172017401210173BDF847
:1044F0000C00FEF7B9FE9DF81400FEF774FEBDF83F
:104500000400FEF778FDBDF80800FEF720FE5046D7
:10451000FEF755FB9DF81000FEF738FD16B101209F
:10452000FFF734FF28460DB0BDE8F08FF8B504461C
:104530000D46164616B94FF0FF30F8BD5548807A43
:1045400010B94FF0FF30F8E720128DF80000E0B20C
:104550008DF801009DF8010028444E4949684989B9
:10456000884202DD4FF0FF30E7E74A4A1268117EC9
:10457000484A526810786B460222FCF7C2FF10B11D
:104580004FF0FF30D9E7434A1268517D414A5268E3
:1045900010783346EAB2FCF7B4FF10B14FF0FF30A9
:1045A000CBE70020C9E7F8B504460D46164616B914
:1045B0004FF0FF30F8BD3748807A10B94FF0FF3028
:1045C000F8E720128DF80000E0B28DF801009DF8A8
:1045D000010028442F4949684989884202DD4FF08B
:1045E000FF30E7E72B4A1268117E2A4A526810789A
:1045F0006B460222FCF785FF10B14FF0FF30D9E780
:10460000244A1268517D234A526810783346EAB230
:10461000FCF7DCFF10B14FF0FF30CBE70020C9E71B
:104620002DE9F04385B005460E4690469946194857
:1046300090F8250020B14FF0FF3005B0BDE8F083C1
:1046400016B94FF0FF30F8E7002427E0281B1028A8
:1046500001DD102000E0281B87B2321939462046C0
:10466000FFF764FF10B14FF0FF30E6E701AA3946CB
:104670002046FFF798FF10B14FF0FF30DDE730190B
:104680003A4601A901F0CCFE30B16FF00100D4E749
:104690006CA0000860020020E01984B2AC42D5DBB7
:1046A0004FEA28208DF8000008F0FF008DF8010087
:1046B000924A1268917E914A526810786B460222A3
:1046C000FCF71FFF10B14FF0FF30B6E701218B4818
:1046D00080F82510A0F826900020AEE70146874814
:1046E00090F8240008700020704702464FF0FF3019
:1046F000704701464FF0FF307047F8B505460F464A
:104700001446F4B3B5F5FF5F01DDFF2605E0202D6B
:1047100001DA012601E0C5F3471607B90127282C65
:1047200002DD4FF0FF30F8BD7448407D28BB734870
:1047300090F8240038B10020FFF728FE01216F48CF
:1047400080F8201003E000216C4880F820106B48AE
:104750001630FFF742F869481830FFF75EF86748EF
:104760001A30FFF77EF865481C30FFF79FF8634862
:10477000817A81771F30FFF7F3F80020FEF762F9A6
:1047800000E07AE00020FEF775FC00208DF80000C4
:104790005A4A12689178594A526810786B46012239
:1047A000FCF7AFFE10B14FF0FF30BCE740208DF8B2
:1047B0000000524A1268D17B504A526810786B460A
:1047C0000122FCF79EFE00B164E08DF800608DF8D8
:1047D00001704A4A1268117A484A526810786B464A
:1047E0000222FCF78EFE00B154E00520FCF7D1F95F
:1047F0004248407A072101EBC000C0B28DF80000AA
:104800003E4A1268D1793D4A526810786B460122BF
:10481000FCF777FE00B13DE020208DF80000012C70
:1048200003D100208DF801000EE0052C03DC0120EF
:104830008DF8010008E0142C03DC02208DF8010043
:1048400002E003208DF801009DF80100072101EB33
:104850008010C0B28DF80100284A1268917C274A66
:10486000526810786B460222FCF74BFE00B111E053
:10487000012122484175002055E7204A16320021C7
:1048800003E0505C00B105E0491C0C29F9D34FF05E
:10489000FF3048E7FF2019490872FF21174841728D
:1048A000C1724FF6FF71C181FF2181720174012134
:1048B00001730146887FFEF782F91049C88AFEF726
:1048C000D3FC0E49087EFEF78EFC0C49488BFEF7A0
:1048D00092FB0A49888BFEF73AFC0849C87FFEF72D
:1048E00055FB064890F8200010B10120FFF74EFD5F
:1048F000002102484175002015E7000060020020F9
:1049000010B5C8234FF48062FB4940F6F630FFF73C
:1049100087FE10BD10B586B00446F8A0006803906D
:10492000F7A000680290F7A000680190F6A0006868
:10493000009004F0030003A9085C8DF8140003A89C
:10494000C4F3C101405C8DF8150003A8C4F38111C4
:10495000405C8DF8160004F0030002A9085C8DF895
:10496000100002A8C4F3C101405C8DF8110002A838
:10497000C4F38111405C8DF8120005AA032140F2B6
:104980002640FFF7D3FD18B14FF0FF3006B010BD41
:1049900004AA032140F22A40FFF7C8FD10B14FF0EE
:1049A000FF30F3E7019805900098049014F0040F8D
:1049B0000BD09DF8140040F001008DF814009DF814
:1049C000100040F001008DF8100014F0200F0BD003
:1049D0009DF8150040F001008DF815009DF81100BC
:1049E00040F001008DF8110014F4807F0BD09DF889
:1049F000160040F001008DF816009DF8120040F0FE
:104A000001008DF8120005AA03214FF48860FFF71A
:104A10008DFD10B14FF0FF30B8E704AA032140F23A
:104A20003140FFF783FD10B14FF0FF30AEE7B748DC
:104A300004810020AAE72DE9FF470446B348008916
:104A400000F0030054F820000190B048008910F0F5
:104A5000040F02D0019840420190AC480089C0F395
:104A6000C10054F820000290A848008910F0200FDF
:104A700002D0029840420290A4480089C0F38110FD
:104A800054F820000390A148008910F4807F02D0E0
:104A90000398404203909E49019880FB015A1E22D0
:104AA0002846514601F05EFB01909949029880FB2F
:104AB00001671E223046394601F054FB02909449AA
:104AC000039880FB01891E224046494601F04AFBBB
:104AD00003900198000E8DF800000198000C8DF8ED
:104AE00001000198000A8DF802000198C0B28DF80B
:104AF00003006A4604214FF47470FFF717FD20B1DC
:104B00004FF0FF3004B0BDE8F0870298000E8DF83A
:104B100000000298000C8DF801000298000A8DF840
:104B200002000298C0B28DF803006A4604214FF4D7
:104B30007570FFF7FBFC10B14FF0FF30E2E7039810
:104B4000000E8DF800000398000C8DF8010003980A
:104B5000000A8DF802000398C0B28DF803006A467F
:104B600004214FF47670FFF7E1FCCBE72DE9F04F1D
:104B70008BB0074601A8FEF7CCFEBDF8046000200C
:104B80000F2208903046089901F0D9FA04460D46E4
:104B90005E48008900F0030057F8200005905B484C
:104BA000008910F0040F02D0059840420590574844
:104BB0000089C0F3C10057F82000069053480089CF
:104BC00010F0200F02D00698404206904F4800890E
:104BD000C0F3811057F8200007904C48008910F46A
:104BE000807F02D00798404207900598C117A0FB2C
:104BF000048201FB042100FB05101E220A9040469E
:104C00000A9901F0AFFA05900698C117A0FB04922B
:104C100001FB042100FB051A1E224846514601F003
:104C2000A1FA06900798C117A0FB04B201FB04216A
:104C300000FB05101E2209905846099901F092FACE
:104C400007900598000E8DF808000598000C8DF867
:104C500009000598000A8DF80A000598C0B28DF881
:104C60000B000698000E8DF80C000698000C8DF8CD
:104C70000D000698000A8DF80E000698C0B28DF857
:104C80000F000798000E8DF810000798000C8DF8A3
:104C900011000798000A8DF812000798C0B28DF82D
:104CA000130002AA0C214FF42570FFF73FFC0BB054
:104CB000BDE8F08F30B585B0044616A207CA02AB36
:104CC00007C3C82C03DD4FF0FF3005B030BDC8204E
:104CD00090FBF4F0401E85B2280A8DF80000E8B27F
:104CE0008DF801006A46022140F21620FFF71EFCF3
:104CF000B0B14FF0FF30E8E7E2A000084CCD6C0007
:104D00000CC92C003656760026466600301100206D
:104D100009E3CA02FEF2ABC4AAF1DFDFBBAFDFDFFB
:104D200002AA0C2140F6C120FFF700FC10B14FF0A1
:104D3000FF30CAE7FE4884810020C6E70146FC48F0
:104D400080890880002070472DE9FC4706460F4601
:104D500016F0070F02D0B7F5C86F03DD4FF0FF3034
:104D6000BDE8FC87384604F007F98146F14903F0B5
:104D7000B9FF80466846FEF750FD9DF80000022806
:104D800006D0042816D0082826D0102848D135E0AF
:104D90004FF08D41404604F037F9814604F0B4F8F5
:104DA00084B2E549404604F02FF9814604F0ACF89E
:104DB00085B238E04FF08C41404604F025F9814639
:104DC00004F0A2F884B2DD49404604F01DF98146A2
:104DD00004F09AF885B226E04FF08B41404604F08B
:104DE00013F9814604F090F884B2D549404604F0A6
:104DF0000BF9814604F088F885B214E04FF08A413F
:104E0000404604F001F9814604F07EF884B2CD49B1
:104E1000404604F0F9F8814604F076F885B202E0E5
:104E20004FF0FF309CE700BF20128DF80400E0B285
:104E30008DF8050028128DF80600E8B28DF80700FD
:104E400016F0010F14D001AA02214FF4EA70FFF707
:104E50006DFB10B14FF0FF3082E70DF10602022129
:104E60004FF49270FFF762FB10B14FF0FF3077E71D
:104E700016F0020F14D001AA02214FF4EC70FFF7D4
:104E800055FB10B14FF0FF306AE70DF10602022129
:104E90004FF49470FFF74AFB10B14FF0FF305FE71B
:104EA00016F0040F14D001AA02214FF4EE70FFF7A0
:104EB0003DFB10B14FF0FF3052E70DF10602022129
:104EC0004FF49670FFF732FB10B14FF0FF3047E719
:104ED000002045E738B504460020009014F0010F8B
:104EE00004D09DF8000040F03000009014F0020F54
:104EF00004D09DF8000040F00C00009014F0040F66
:104F000004D09DF8000040F0030000906A460121A3
:104F10004FF4A470FFF70AFB38BD38B50446012CE6
:104F200001DA012402E0042C00DD0424601EC0B27A
:104F300000906A46012140F24F10FFF7F7FA38BDA2
:104F400038B50446052094FBF0F085B228128DF8A0
:104F50000000E8B28DF801006A4602214FF4EF70BC
:104F6000FFF7E4FA38BD38B50446052094FBF0F0AD
:104F700085B228128DF80000E8B28DF801006A466B
:104F800002214FF4ED70FFF7D1FA38BDF8B50546B0
:104F90000E464FF47A7095FBF0F000FB06F4200EFD
:104FA0008DF80000200C8DF80100200A8DF8020019
:104FB000E0B28DF803006A4604214FF4AE70FFF7AB
:104FC000B5FAF8BD38B50446052094FBF0F084B27C
:104FD00020128DF80000E0B28DF801006A4602212F
:104FE0004FF4AD70FFF7A2FA38BD38B5044605207E
:104FF00094FBF0F084B220128DF80000E0B28DF83E
:1050000001006A4602214FF4AC70FFF78FFA38BDF9
:1050100038B5044614B94FF0FF3038BD6A46042154
:105020004FF45870FFF7BFFA10B14FF0FF30F4E7BC
:105030009DF8000000069DF8011040EA01409DF82F
:10504000021040EA01209DF8031008432060002070
:10505000E3E738B50446200E8DF80000200C8DF8EB
:105060000100200A8DF80200E0B28DF803006A46C4
:1050700004214FF45870FFF759FA38BD38B504468B
:1050800014B94FF0FF3038BD6A4604214FF47170F7
:10509000FFF789FA10B14FF0FF30F4E79DF80000F8
:1050A00000069DF8011040EA01409DF8021040EA18
:1050B00001209DF80310084300EB80008000206071
:1050C0000020E0E738B504461420B4FBF0F4200ECD
:1050D0008DF80000200C8DF80100200A8DF80200E8
:1050E000E0B28DF803006A4604214FF47170FFF7B7
:1050F0001DFA38BD38B5044664B120208DF8000093
:1051000028208DF8010030208DF8020038208DF81D
:10511000030004E0A3220421684601F0C7F96A46AF
:10512000042140F69E20FFF701FAFDF752FE38BD3C
:105130003011002000004843000040460000C045F8
:10514000000040450000C04438B5044664B1C020AA
:105150008DF80000C2208DF80100C4208DF80200F7
:10516000C6208DF8030004E08B220421684601F07C
:105170009DF96A46042140F69820FFF7D7F9FDF71C
:1051800028FE38BD3EB504466CB1FCA1D1E9002033
:105190008968CDE9002002916A4609214FF49760A1
:1051A000FFF7C4F93EBDF8A2D2E900109268CDE93C
:1051B000010200916A4609214FF49760FFF7B6F9A2
:1051C000F0E73EB5044602208DF80000CA208DF8B5
:1051D0000100E3208DF8020009208DF803006A46E3
:1051E00004216820FFF7A2F9A3208DF8000014F035
:1051F000400F09D0C0208DF80100C8208DF80200B2
:10520000C2208DF8030006E0A3208DF801008DF880
:1052100002008DF8030014F4C07F09D0C4208DF87B
:105220000400CC208DF80500C6208DF8060006E0AD
:10523000A3208DF804008DF805008DF80600A3204A
:105240008DF807008DF808008DF809006A460A21DC
:1052500040F6A720FFF76AF914F0030F03D02020CF
:105260008DF8000002E0D8208DF800006A46012188
:1052700040F6B620FFF75AF914F0200F03D00120B2
:10528000FFF780FF02E00020FFF77CFF14F4C07FEF
:1052900021D014F4807F0CD0B2208DF800008B2038
:1052A0008DF80100B6208DF802009B208DF80300D8
:1052B0000BE0B0208DF8000080208DF80100B420B4
:1052C0008DF8020090208DF803006A46042140F614
:1052D000A220FFF72BF914F0010F24D0F8208DF84D
:1052E00000006A4601214FF40B60FFF71FF9FA2115
:1052F0000720FFF729FD0720FFF7ECFD0120FFF74E
:105300000CFE6420FFF71CFE4FF4FA70FFF72BFE33
:10531000C821A048FFF73AFE2820FFF753FE0A20D5
:10532000FFF763FE08E0D8208DF800006A460121EF
:105330004FF40B60FFF7FAF814F0020F03D0D920F6
:105340008DF8000002E0D8208DF800006A460121A7
:1053500040F23D70FFF7EAF814F0040F03D001208B
:10536000FFF7F2FE02E00020FFF7EEFE14F0100F50
:1053700003D00120FFF7BEFE02E00020FFF7BAFED7
:1053800044F0080084494881FDF723FD002082494C
:10539000887314F0400F03D00846807B801D88730B
:1053A00014F4C07F04D07C48807B801D7A498873C8
:1053B00014F0140F04D07848807B1030764988733D
:1053C00014F0030F04D07448807B001D7249887369
:1053D00000203EBD0146704840890880002070478B
:1053E0002DE9F0410446E07800F0C006E07800F0D6
:1053F0003F05607810F0010F13D0EF102846E91731
:1054000005EB5171C910A5EBC101491C01F0FF0862
:105410006148006820B160484146026838469047BC
:1054200000BF607810F0080F06D05B48406818B1E4
:10543000B011594A516888470020BDE8F08110B585
:1054400086B0044655A207CA03AB07C356A207CAD3
:105450008DE80700012C09D0022C0ED103AA0B21E4
:1054600040F68220FFF762F806B010BD6A460B21B5
:1054700040F68220FFF75AF8F6E74FF0FF30F3E7E7
:105480002DE9F04F8DB00746884615469946DDE96F
:10549000166B0024002030803F49887B5A4605A9BE
:1054A000FEF796FB18B1601E0DB0BDE8F08F3A48CC
:1054B000408910F0140F7DD09DF8140000069DF86F
:1054C000151040EA01409DF8161040EA01209DF8B1
:1054D0001710084328609DF8180000069DF8191061
:1054E00040EA01409DF81A1040EA01209DF81B1087
:1054F000084368609DF81C0000069DF81D1040EAF6
:1055000001409DF81E1040EA01209DF81F1008433D
:10551000A8609DF8200000069DF8211040EA014097
:105520009DF8221040EA01209DF823100843E8600E
:1055300004F11000C4B228680014019068680014D7
:105540000290A86800140390E86800140490019881
:105550004043029901FB0100039901FB01000499FA
:1055600001FB010ABAF1706F02DBBAF1885F22DD3C
:10557000FDF72FFC00203080401E95E7B8AAB38DC0
:10558000B4980D355D000000B8AAAAAAB088C3C5BA
:10559000C700000009E3CA0230110020D8B1B9F3F6
:1055A0008BA391B609B4D900DAB1B9F38BA391B644
:1055B000DAB4DA0005E0B6F9000040F4807030801B
:1055C00000BF3448408910F0400F24D005A9601C6A
:1055D000085C095D40EA012000B2A8F8000005A9B6
:1055E000E01C095C05AAA01C105C41EA002000B286
:1055F000A8F8020005A9601D095C201D105C41EAA5
:10560000002000B2A8F80400A01DC4B2B6F9000042
:1056100040F0080030801F48408910F4C07F21D03E
:1056200005A9601C085C095D40EA012000B23880D1
:1056300005A9E01C095C05AAA01C105C41EA002039
:1056400000B2788005A9601D095C201D105C41EA4C
:10565000002000B2B880A01DC4B2B6F9000040F02E
:10566000700030800B48408910F0030F03D005A96B
:105670000819FFF7B5FE4846FDF70BFF002013E7BA
:10568000014604480160002070470146014841601E
:105690000020704730110020014691F90020002AB7
:1056A00001DD00201EE091F90020002A01DA04202B
:1056B00018E091F90120002A01DD012012E091F9A2
:1056C0000120002A01DA05200CE091F90220002ACD
:1056D00001DD022006E091F90220002A01DA06200D
:1056E00000E00720704770B505462846FFF7D4FF55
:1056F0000446E81CFFF7D0FF44EAC00084B2A81DAE
:10570000FFF7CAFF44EA801084B2204670BD70B52E
:1057100088B002A905A8FEF77EFE0446072C3FD1FB
:1057200001A8FEF7D9F8059803F00EFC064601998A
:1057300003F06AFC054603F0CBFB0590069803F0E6
:1057400003FC0646019903F05FFC054603F0C0FB2D
:105750000690079803F0F8FB0646019903F054FC05
:10576000054603F0B5FB079005A8FFF764F9684606
:10577000FEF7CFF8BDF80010029848430290BDF83C
:105780000010039848430390BDF800100498484364
:10579000049002A8FFF7EAF9FFA000F02DFD00BF7A
:1057A00008B070BD2DE9F04304460D46DDE90767FA
:1057B0000021012041E0DFF804C43CF81080A0F192
:1057C000010CDFF8F89329F81C8009F1160C3CF85D
:1057D0001090A0F1010CDFF8E48308F1160828F816
:1057E0001C9008F1160C3CF81090A0F1010C08F187
:1057F000160828F81C9008F1160C3CF81090A0F13F
:10580000010C08F1160828F81C9008F1160C3CF859
:105810001090A0F1010C08F1160828F81C9008F16E
:10582000160C3CF81090A0F1010C08F1160828F8AD
:105830001C9000F1010C0CF0FF000A28BBDBDFF824
:105840007CC3ACF81240ACF82850ACF83E20ACF861
:105850005430ACF86A60ACF880700021002008E099
:10586000DFF858C33CF910C0614400F1010C0CF0A2
:10587000FF000A28F4DB4FF00A0C91FBFCFC0FFA46
:105880008CFCDFF83883A8F814C0002100200AE05F
:10589000DFF828C30CF1160C3CF910C0614400F18C
:1058A000010C0CF0FF000A28F2DB4FF00A0C91FB10
:1058B000FCFC0FFA8CF8DFF804C3ACF82A80002156
:1058C00000200AE0DFF8F4C20CF12C0C3CF910C007
:1058D000614400F1010C0CF0FF000A28F2DB4FF0EC
:1058E0000A0C91FBFCFC0FFA8CF8DFF8D0C2ACF884
:1058F0004080002100200AE0DFF8C0C20CF1420C19
:105900003CF910C0614400F1010C0CF0FF000A28C2
:10591000F2DB4FF00A0C91FBFCFC0FFA8CF8DFF87D
:105920009CC2ACF85680002100200AE0DFF88CC24F
:105930000CF1580C3CF910C0614400F1010C0CF062
:10594000FF000A28F2DB4FF00A0C91FBFCFC0FFA77
:105950008CF8DFF868C2ACF86C80002100200AE007
:10596000DFF858C20CF16E0C3CF910C0614400F134
:10597000010C0CF0FF000A28F2DB4FF00A0C91FB3F
:10598000FCFC0FFA8CF8DFF834C2ACF88280BDE87A
:10599000F08338B50446032302226B21D020009403
:1059A000FBF7EBFE38BD38B50446022304221B2169
:1059B000D0200094FBF7E1FE38BD38B50446022341
:1059C00004221C21D0200094FBF7D7FE38BD10B56F
:1059D0000446234606226B21D020FBF705FF10BDAD
:1059E00010B5774B01227521D020FBF74DFE74488E
:1059F000007810BD10B5FFF7F3FF682801D1012032
:105A000010BD0020FCE710B50446234605226A219C
:105A1000D020FBF7E9FE10BD10B504462346012255
:105A20003721D020FBF7E0FE10BD10B50220FFF7B4
:105A3000B0FF0320FFF7B7FF0020FFF7BEFF0020F5
:105A4000FFF7C5FF0020FFF7DEFF0020FFF7E4FFB0
:105A500010BD38B5002000906B46012275216820EA
:105A6000FBF7B4FD01205749087057A000F0C4FBB4
:105A70009DF80000682812D000BF5C48006800F460
:105A8000E0605B4940EA010000F104004FF0E021D2
:105A9000C1F80C0DBFF3408F00BF00BFFEE7FDF75C
:105AA00025FCE0BB7820FDF78AF810B946A000F08D
:105AB000A3FB7820FDF76AFA10B94EA000F09CFB1A
:105AC000C820FDF744FB10B954A000F095FBFEF789
:105AD00017FF10B95BA000F08FFB6748FFF703FECC
